:100000000C9439010C944E010C944E010C944E0149
:100010000C944E010C944E010C944E010C944E0124
:100020000C944E010C944E010C944E010C944E0114
:100030000C944E010C944E010C944E010C944E0104
:100040000C944E010C944E010C944E010C944E01F4
:100050000C944E010C944E010C944E010C944E01E4
:100060000C944E010C944E0152096AD53036A538D5
:10007000BF40A39E81F3D7FB7CE339829B2FFF8790
:10008000348E4344C4DEE9CB547B9432A6C2233D74
:10009000EE4C950B42FAC34E082EA16628D924B225
:1000A000765BA2496D8BD12572F8F6648668981646
:1000B000D4A45CCC5D65B6926C704850FDEDB9DAA5
:1000C0005E154657A78D9D8490D8AB008CBCD30A93
:1000D000F7E45805B8B34506D02C1E8FCA3F0F026F
:1000E000C1AFBD0301138A6B3A9111414F67DCEA3E
:1000F00097F2CFCEF0B4E67396AC7422E7AD3585B7
:10010000E2F937E81C75DF6E47F11A711D29C589C0
:100110006FB7620EAA18BE1BFC563E4BC6D27920A2
:100120009ADBC0FE78CD5AF41FDDA8338807C731AB
:10013000B11210592780EC5F60517FA919B54A0DA3
:100140002DE57A9F93C99CEFA0E03B4DAE2AF5B018
:10015000C8EBBB3C83539961172B047EBA77D62634
:10016000E169146355210C7D637C777BF26B6FC56D
:100170003001672BFED7AB76CA82C97DFA5947F0AA
:10018000ADD4A2AF9CA472C0B7FD9326363FF7CC86
:1001900034A5E5F171D8311504C723C31896059A23
:1001A000071280E2EB27B27509832C1A1B6E5AA046
:1001B000523BD6B329E32F8453D100ED20FCB15B31
:1001C0006ACBBE394A4C58CFD0EFAAFB434D33859A
:1001D00045F9027F503C9FA851A3408F929D38F56E
:1001E000BCB6DA2110FFF3D2CD0C13EC5F974417A5
:1001F000C4A77E3D645D197360814FDC222A90881C
:1002000046EEB814DE5E0BDBE0323A0A4906245CA7
:10021000C2D3AC629195E479E7C8376D8DD54EA90C
:100220006C56F4EA657AAE08BA78252E1CA6B4C6D8
:10023000E8DD741F4BBD8B8A703EB5664803F60E31
:10024000613557B986C11D9EE1F8981169D98E9420
:100250009B1E87E9CE5528DF8CA1890DBFE6426839
:1002600041992D0FB054BB160102040810204080A4
:100270001B3611241FBECFEFD8E0DEBFCDBF11E08B
:10028000A0E0B1E0E6EBF3E102C005900D92A033EF
:10029000B107D9F70E943B090C94D9090C940000CE
:1002A000CF93DF931F92CDB7DEB7898389818823EF
:1002B0004CF48981882F90E0880F991F982F8BE14B
:1002C000892702C08981880F0F90DF91CF9108950F
:1002D000CF93DF9300D01F92CDB7DEB79B838A8385
:1002E0008A819B81FC01858589838A819B810D960A
:1002F0002A813B81F9012185FC0120838A819B8130
:1003000009962A813B81F9012581FC0120838A819C
:100310009B8105962A813B81F9012181FC01208383
:100320008A819B8101962981FC0120838A819B819E
:10033000FC01868589838A819B810E962A813B8177
:10034000F9012681FC0120838A819B8106962981FF
:10035000FC0120838A819B81FC01828589838A81BB
:100360009B810A962A813B81F9012281FC0120832D
:100370008A819B8102962981FC0120838A819B814D
:10038000FC01838189838A819B8103962A813B8139
:10039000F9012781FC0120838A819B8107962A81AC
:1003A0003B81F9012385FC0120838A819B810B9687
:1003B0002A813B81F9012785FC0120838A819B8169
:1003C0000F962981FC01208300000F900F900F9061
:1003D000DF91CF910895FF920F931F93CF93DF93F7
:1003E000CDB7DEB7A1970FB6F894DEBF0FBECDBF75
:1003F0009D8F8C8F7F8F6E8F59A348A38C8D9D8D81
:1004000080569F4F9D8F8C8F19821FC08981882FA6
:1004100090E028A139A1820F931F2981222F30E07B
:100420004E8D5F8D240F351FF90160812981222FA8
:1004300030E04C8D5D8D240F351FF901208126277A
:10044000FC01208389818F5F898389818031F0F26B
:100450008C8D9D8D40979D8F8C8F88A199A10E9436
:100460006801198221C08981882F90E028A139A1D3
:10047000820F931F2981222F30E048A159A1240F18
:10048000351FF9012081222F30E028593F4F3C834E
:100490002B832B813C81F90124912D832D81FC013B
:1004A000208389818F5F898389818031E0F281E0B7
:1004B0008A83F5C1198220C08981882F90E09E012E
:1004C000245F3F4F820F931F2981222F30E048A1E4
:1004D00059A1240F351FF90160812981222F30E0B5
:1004E0004C8D5D8D240F351FF90120812627FC01DD
:1004F000208389818F5F898389818031E8F2198225
:1005000098C18981882F90E09E01245F3F4F820F20
:10051000931FFC0140818981882F90E001969E0104
:10052000245F3F4F820F931FFC0180814827898100
:10053000882F90E002969E01245F3F4F820F931F09
:10054000FC01808148278981882F90E003969E01D5
:10055000245F3F4F820F931FFC01808184278E838D
:100560008981882F90E028A139A18901080F191FDE
:100570008981882F90E09E01245F3F4F820F931F57
:10058000FC0190818E81F92EF8268981882F90E0D8
:100590009E01245F3F4F820F931FFC0140818981A0
:1005A000882F90E001969E01245F3F4F820F931F9A
:1005B000FC01808184270E9450018F25F8018083EF
:1005C0008981882F90E0019628A139A18901080F1F
:1005D000191F8981882F90E001969E01245F3F4F6B
:1005E000820F931FFC0190818E81F92EF82689815C
:1005F000882F90E001969E01245F3F4F820F931F4A
:10060000FC0140818981882F90E002969E01245F41
:100610003F4F820F931FFC01808184270E9450016D
:100620008F25F80180838981882F90E0029628A188
:1006300039A18901080F191F8981882F90E002963E
:100640009E01245F3F4F820F931FFC0190818E819A
:10065000F92EF8268981882F90E002969E01245F6A
:100660003F4F820F931FFC0140818981882F90E0CA
:1006700003969E01245F3F4F820F931FFC018081F0
:1006800084270E9450018F25F80180838981882F5B
:1006900090E0039628A139A18901080F191F8981CB
:1006A000882F90E003969E01245F3F4F820F931F97
:1006B000FC0190818E81F92EF8268981882F90E0A7
:1006C00003969E01245F3F4F820F931FFC014081E0
:1006D0008981882F90E09E01245F3F4F820F931FF6
:1006E000FC01808184270E9450018F25F8018083BE
:1006F0008981882F90E09E01245F3F4F820F931FD6
:10070000FC0140818981882F90E002969E01245F40
:100710003F4F820F931FFC01808184270E9450016C
:100720000E9450018F838981882F90E001969E015D
:10073000245F3F4F820F931FFC0140818981882FE6
:1007400090E003969E01245F3F4F820F931FFC01B0
:10075000808184270E9450010E94500188879F81D8
:10076000888589270E9450018E838981882F90E097
:1007700028A139A1820F931F2981222F30E048A19F
:1007800059A1240F351FF90130814E812F81242773
:100790002327FC0120838981882F90E0019628A1DE
:1007A00039A1820F931F2981222F30E02F5F3F4F05
:1007B00048A159A1240F351FF90130814E812885A8
:1007C00024272327FC0120838981882F90E002962B
:1007D00028A139A1820F931F2981222F30E02E5F9B
:1007E0003F4F48A159A1240F351FF90130814E8197
:1007F0002F8124272327FC0120838981882F90E0E3
:10080000039628A139A1820F931F2981222F30E05E
:100810002D5F3F4F48A159A1240F351FF9013081A9
:100820004E81288524272327FC01208389818C5F22
:1008300089838981803108F464CE88A199A10E94BE
:100840006801198221C08981882F90E028A139A1EF
:10085000820F931F2981222F30E048A159A1240F34
:10086000351FF9012081222F30E028593F4F3A8768
:10087000298729853A85F90124912B872B85FC014D
:10088000208389818F5F898389818031E0F28C8D1B
:100890009D8D40979D8F8C8F8A818F5F8A838A81FF
:1008A0008A3008F407CE19821FC08981882F90E012
:1008B00028A139A1820F931F2981222F30E048A15E
:1008C00059A1240F351FF90160812981222F30E0C1
:1008D0004C8D5D8D240F351FF90120812627FC01E9
:1008E000208389818F5F898389818031F0F20000C4
:1008F000A1960FB6F894DEBF0FBECDBFDF91CF91AA
:100900001F910F91FF900895CF93DF931F92CDB762
:10091000DEB78983898188234CF48981882F90E010
:10092000880F991F982F8BE1892702C08981880F32
:100930000F90DF91CF910895CF93DF9300D01F9256
:10094000CDB7DEB79B838A838A819B81FC0181813D
:1009500089838A819B8101962A813B81F9012581C6
:10096000FC0120838A819B8105962A813B81F901C4
:100970002185FC0120838A819B8109962A813B8104
:10098000F9012585FC0120838A819B810D962981AF
:10099000FC0120838A819B81FC01828189838A8179
:1009A0009B8102962A813B81F9012285FC012083EB
:1009B0008A819B810A962981FC0120838A819B81FF
:1009C000FC01868189838A819B8106962A813B81ED
:1009D000F9012685FC0120838A819B810E9629815D
:1009E000FC0120838A819B81FC01878589838A8120
:1009F0009B810F962A813B81F9012385FC0120838D
:100A00008A819B810B962A813B81F9012781FC0118
:100A100020838A819B8107962A813B81F90123816A
:100A2000FC0120838A819B8103962981FC0120831C
:100A300000000F900F900F90DF91CF9108950F93CA
:100A40001F93CF93DF93CDB7DEB76F970FB6F894B0
:100A5000DEBF0FBECDBF9B8F8A8F7D8F6C8F5F8F68
:100A60004E8F19821FC08981882F90E02E8D3F8D77
:100A7000280F391F8981882F90E04C8D5D8D840F60
:100A8000951FFC0160818A8D9B8DAC014F5F5F4F8C
:100A90005B8F4A8FFC0180818627F90180838981E1
:100AA0008F5F898389818031F0F281E08A8356C12A
:100AB000198222C08981882F90E09E01265F3F4FD6
:100AC000820F931F2981222F30E04E8D5F8D240FDE
:100AD000351FF9012081222F30E028593E4F3C83F9
:100AE0002B832B813C81F90124912D832D81FC01E5
:100AF000208389818F5F898389818031D8F2CE01FB
:100B00000A960E949C041982FEC08981882F90E079
:100B10009E01265F3F4F820F931FFC014081898118
:100B2000882F90E001969E01265F3F4F820F931F12
:100B3000FC01808148278981882F90E002969E01E0
:100B4000265F3F4F820F931FFC01808148278981D8
:100B5000882F90E003969E01265F3F4F820F931FE0
:100B6000FC01808184278E838981882F90E02E8DDF
:100B70003F8D8901080F191F8981882F90E09E0100
:100B8000265F3F4F820F931FFC0140818981882F90
:100B900090E001969E01265F3F4F820F931FFC015C
:100BA000808184270E948404482F8981882F90E0C7
:100BB0009E01265F3F4F820F931FFC018081942F7F
:100BC00098278E818927F80180838981882F90E07A
:100BD00001962E8D3F8D8901080F191F8981882F5D
:100BE00090E001969E01265F3F4F820F931FFC010C
:100BF00040818981882F90E002969E01265F3F4FB9
:100C0000820F931FFC01808184270E948404482F57
:100C10008981882F90E001969E01265F3F4F820FC9
:100C2000931FFC018081942F98278E818927F801DA
:100C300080838981882F90E002962E8D3F8D8901D7
:100C4000080F191F8981882F90E002969E01265F68
:100C50003F4F820F931FFC0140818981882F90E0D4
:100C600003969E01265F3F4F820F931FFC018081F8
:100C700084270E948404482F8981882F90E002965F
:100C80009E01265F3F4F820F931FFC018081942FAE
:100C900098278E818927F80180838981882F90E0A9
:100CA00003962E8D3F8D8901080F191F8981882F8A
:100CB00090E003969E01265F3F4F820F931FFC0139
:100CC00040818981882F90E09E01265F3F4F820FEF
:100CD000931FFC01808184270E948404482F89810E
:100CE000882F90E003969E01265F3F4F820F931F4F
:100CF000FC018081942F98278E818927F8018083B9
:100D000089818C5F89838981803108F4FECE1982C4
:100D10001FC08A8D9B8D9C012F5F3F4F3B8F2A8F79
:100D2000FC0160818981882F90E02E8D3F8D820F9C
:100D3000931F2981222F30E04E8D5F8D240F351FA8
:100D4000F90120812627FC01208389818F5F898317
:100D500089818031F0F28A818F5F8A838A818A302B
:100D600008F4A6CE198221C08981882F90E02E8DAB
:100D70003F8D820F931F2981222F30E04E8D5F8D92
:100D8000240F351FF9012081222F30E028593E4FD2
:100D900038872F832F813885F90124912987298568
:100DA000FC01208389818F5F898389818031E0F212
:100DB0008E8D9F8D0E949C0419821FC08A8D9B8DF1
:100DC0009C012F5F3F4F3B8F2A8FFC0160818981FF
:100DD000882F90E02E8D3F8D820F931F2981222F27
:100DE00030E04E8D5F8D240F351FF90120812627BD
:100DF000FC01208389818F5F898389818031F0F2B2
:100E000000006F960FB6F894DEBF0FBECDBFDF9126
:100E1000CF911F910F910895CF93DF93CDB7DEB798
:100E20002D970FB6F894DEBF0FBECDBF9B878A8784
:100E30007D876C871B8215C08C859D859C012F5FEB
:100E40003F4F3D872C872A853B85A9014F5F5F4F28
:100E50005B874A87F9012081FC0120838B818F5FAA
:100E60008B838B81803140F38C859D8504979A8399
:100E700089831B82F2C189819A819C012F5F3F4F38
:100E80003A832983FC018081882F90E088599E4F06
:100E9000FC018081898789819A819C012F5F3F4F66
:100EA0003A832983FC018081882F90E088599E4FE6
:100EB000FC0180818E8389819A819C012F5F3F4F45
:100EC0003A832983FC018081882F90E088599E4FC6
:100ED000FC0180818F8389819A819C012F5F3F4F24
:100EE0003A832983FC018081882F90E088599E4FA6
:100EF000FC01808188872E818B81882F90E0885922
:100F00009D4FFC01808182278E838C859D85409733
:100F10009D838C838C859D859C012F5F3F4F3D87F2
:100F20002C876E812C813D81A9014F5F5F4F5D83CE
:100F30004C83F90120812627FC0120838C859D8527
:100F40009C012F5F3F4F3D872C876F812C813D8116
:100F5000A9014F5F5F4F5D834C83F90120812627F4
:100F6000FC0120838C859D859C012F5F3F4F3D8731
:100F70002C8768852C813D81A9014F5F5F4F5D8380
:100F80004C83F90120812627FC0120838C859D85D7
:100F90009C012F5F3F4F3D872C8769852C813D81C8
:100FA000A9014F5F5F4F5D834C83F90120812627A4
:100FB000FC0120838C859D859C012F5F3F4F3D87E1
:100FC0002C8729813A81A9014F5F5F4F5A8349835A
:100FD000F90160812C813D81A9014F5F5F4F5D83E5
:100FE0004C83F90120812627FC0120838C859D8577
:100FF0009C012F5F3F4F3D872C8729813A81A901B2
:101000004F5F5F4F5A834983F90160812C813D8195
:10101000A9014F5F5F4F5D834C83F9012081262733
:10102000FC0120838C859D859C012F5F3F4F3D8770
:101030002C8729813A81A9014F5F5F4F5A834983E9
:10104000F90160812C813D81A9014F5F5F4F5D8374
:101050004C83F90120812627FC0120838C859D8506
:101060009C012F5F3F4F3D872C8729813A81A90141
:101070004F5F5F4F5A834983F90160812C813D8125
:10108000A9014F5F5F4F5D834C83F90120812627C3
:10109000FC0120838C859D859C012F5F3F4F3D8700
:1010A0002C8729813A81A9014F5F5F4F5A83498379
:1010B000F90160812C813D81A9014F5F5F4F5D8304
:1010C0004C83F90120812627FC0120838C859D8596
:1010D0009C012F5F3F4F3D872C8729813A81A901D1
:1010E0004F5F5F4F5A834983F90160812C813D81B5
:1010F000A9014F5F5F4F5D834C83F9012081262753
:10110000FC0120838C859D859C012F5F3F4F3D878F
:101110002C8729813A81A9014F5F5F4F5A83498308
:10112000F90160812C813D81A9014F5F5F4F5D8393
:101130004C83F90120812627FC0120838C859D8525
:101140009C012F5F3F4F3D872C8729813A81A90160
:101150004F5F5F4F5A834983F90160812C813D8144
:10116000A9014F5F5F4F5D834C83F90120812627E2
:10117000FC0120838C859D859C012F5F3F4F3D871F
:101180002C8729813A81A9014F5F5F4F5A83498398
:10119000F90160812C813D81A9014F5F5F4F5D8323
:1011A0004C83F90120812627FC0120838C859D85B5
:1011B0009C012F5F3F4F3D872C8729813A81A901F0
:1011C0004F5F5F4F5A834983F90160812C813D81D4
:1011D000A9014F5F5F4F5D834C83F9012081262772
:1011E000FC0120838C859D859C012F5F3F4F3D87AF
:1011F0002C8729813A81A9014F5F5F4F5A83498328
:10120000F90160812C813D81A9014F5F5F4F5D83B2
:101210004C83F90120812627FC0120838C859D8544
:101220009C012F5F3F4F3D872C8729813A81A9017F
:101230004F5F5F4F5A834983F90160812C813D8163
:10124000A9014F5F5F4F5D834C83F9012081262701
:10125000FC0120838B818F5F8B838B818A3008F424
:101260000ACE00002D960FB6F894DEBF0FBECDBF9C
:10127000DF91CF910895CF93DF93CDB7DEB7C55FF0
:10128000D1090FB6F894DEBF0FBECDBF9E012E5020
:101290003F4FF90191838083CE018C509F4FFC0119
:1012A0007183608380E1E0E0F1E0DE01129601905D
:1012B0000D928A95E1F780E1E0E1F1E0DE015296DE
:1012C00001900D928A95E1F780E1E0E2F1E0DE0124
:1012D000D29601900D928A95E1F79E012E5B3F4FC9
:1012E000CE010296B9010E940C07AE014E5D5F4F20
:1012F0009E012E5E3F4FCE018E5B9F4FB9010E9433
:101300001F05198219C08981882F90E09E012E5DEA
:101310003F4F820F931FFC0140818981882F90E00D
:101320009E012E5C3F4F820F931FFC018081481766
:1013300039F489818F5F89838981803120F301C0ED
:101340000000AE014E5D5F4F9E012E5D3F4FCE010E
:101350008E5B9F4FB9010E94EB01198219C08981F0
:10136000882F90E09E012E5D3F4F820F931FFC015E
:1013700040818981882F90E09E012E5E3F4F820F31
:10138000931FFC018081481739F489818F5F89831D
:101390008981803120F301C0000080E090E0CB50D3
:1013A000DF4F0FB6F894DEBF0FBECDBFDF91CF91F8
:0613B0000895F894FFCF40
:1013B600000102030405060708090A0B0C0D0E0FAF
:1013C60000112233445566778899AABBCCDDEEFF1F
:1013D60069C4E0D86A7B0430D8CDB78070B4C55AEA
:00000001FF
